{
  "_format": "hh-sol-artifact-1",
  "contractName": "AwesomeSauce3Words",
  "sourceName": "contracts/MyEpicNFT.sol",
  "abi": [
    {
      "inputs": [],
      "stateMutability": "nonpayable",
      "type": "constructor"
    },
    {
      "anonymous": false,
      "inputs": [
        {
          "indexed": true,
          "internalType": "address",
          "name": "owner",
          "type": "address"
        },
        {
          "indexed": true,
          "internalType": "address",
          "name": "approved",
          "type": "address"
        },
        {
          "indexed": true,
          "internalType": "uint256",
          "name": "tokenId",
          "type": "uint256"
        }
      ],
      "name": "Approval",
      "type": "event"
    },
    {
      "anonymous": false,
      "inputs": [
        {
          "indexed": true,
          "internalType": "address",
          "name": "owner",
          "type": "address"
        },
        {
          "indexed": true,
          "internalType": "address",
          "name": "operator",
          "type": "address"
        },
        {
          "indexed": false,
          "internalType": "bool",
          "name": "approved",
          "type": "bool"
        }
      ],
      "name": "ApprovalForAll",
      "type": "event"
    },
    {
      "anonymous": false,
      "inputs": [
        {
          "indexed": false,
          "internalType": "address",
          "name": "sender",
          "type": "address"
        },
        {
          "indexed": false,
          "internalType": "uint256",
          "name": "tokenId",
          "type": "uint256"
        }
      ],
      "name": "NewEpicNFTMinted",
      "type": "event"
    },
    {
      "anonymous": false,
      "inputs": [
        {
          "indexed": true,
          "internalType": "address",
          "name": "previousOwner",
          "type": "address"
        },
        {
          "indexed": true,
          "internalType": "address",
          "name": "newOwner",
          "type": "address"
        }
      ],
      "name": "OwnershipTransferred",
      "type": "event"
    },
    {
      "anonymous": false,
      "inputs": [
        {
          "indexed": true,
          "internalType": "address",
          "name": "from",
          "type": "address"
        },
        {
          "indexed": true,
          "internalType": "address",
          "name": "to",
          "type": "address"
        },
        {
          "indexed": true,
          "internalType": "uint256",
          "name": "tokenId",
          "type": "uint256"
        }
      ],
      "name": "Transfer",
      "type": "event"
    },
    {
      "inputs": [
        {
          "internalType": "address",
          "name": "to",
          "type": "address"
        },
        {
          "internalType": "uint256",
          "name": "tokenId",
          "type": "uint256"
        }
      ],
      "name": "approve",
      "outputs": [],
      "stateMutability": "nonpayable",
      "type": "function"
    },
    {
      "inputs": [
        {
          "internalType": "address",
          "name": "owner",
          "type": "address"
        }
      ],
      "name": "balanceOf",
      "outputs": [
        {
          "internalType": "uint256",
          "name": "",
          "type": "uint256"
        }
      ],
      "stateMutability": "view",
      "type": "function"
    },
    {
      "inputs": [
        {
          "internalType": "uint256",
          "name": "tokenId",
          "type": "uint256"
        }
      ],
      "name": "getApproved",
      "outputs": [
        {
          "internalType": "address",
          "name": "",
          "type": "address"
        }
      ],
      "stateMutability": "view",
      "type": "function"
    },
    {
      "inputs": [],
      "name": "getTotalNFTsMintedSoFar",
      "outputs": [
        {
          "internalType": "uint256",
          "name": "",
          "type": "uint256"
        }
      ],
      "stateMutability": "view",
      "type": "function"
    },
    {
      "inputs": [
        {
          "internalType": "address",
          "name": "owner",
          "type": "address"
        },
        {
          "internalType": "address",
          "name": "operator",
          "type": "address"
        }
      ],
      "name": "isApprovedForAll",
      "outputs": [
        {
          "internalType": "bool",
          "name": "",
          "type": "bool"
        }
      ],
      "stateMutability": "view",
      "type": "function"
    },
    {
      "inputs": [],
      "name": "makeAnEpicNFT",
      "outputs": [],
      "stateMutability": "payable",
      "type": "function"
    },
    {
      "inputs": [],
      "name": "name",
      "outputs": [
        {
          "internalType": "string",
          "name": "",
          "type": "string"
        }
      ],
      "stateMutability": "view",
      "type": "function"
    },
    {
      "inputs": [],
      "name": "owner",
      "outputs": [
        {
          "internalType": "address",
          "name": "",
          "type": "address"
        }
      ],
      "stateMutability": "view",
      "type": "function"
    },
    {
      "inputs": [
        {
          "internalType": "uint256",
          "name": "tokenId",
          "type": "uint256"
        }
      ],
      "name": "ownerOf",
      "outputs": [
        {
          "internalType": "address",
          "name": "",
          "type": "address"
        }
      ],
      "stateMutability": "view",
      "type": "function"
    },
    {
      "inputs": [
        {
          "internalType": "uint256",
          "name": "tokenId",
          "type": "uint256"
        }
      ],
      "name": "pickRandomFirstWord",
      "outputs": [
        {
          "internalType": "string",
          "name": "",
          "type": "string"
        }
      ],
      "stateMutability": "view",
      "type": "function"
    },
    {
      "inputs": [
        {
          "internalType": "uint256",
          "name": "tokenId",
          "type": "uint256"
        }
      ],
      "name": "pickRandomSecondWord",
      "outputs": [
        {
          "internalType": "string",
          "name": "",
          "type": "string"
        }
      ],
      "stateMutability": "view",
      "type": "function"
    },
    {
      "inputs": [
        {
          "internalType": "uint256",
          "name": "tokenId",
          "type": "uint256"
        }
      ],
      "name": "pickRandomThirdWord",
      "outputs": [
        {
          "internalType": "string",
          "name": "",
          "type": "string"
        }
      ],
      "stateMutability": "view",
      "type": "function"
    },
    {
      "inputs": [],
      "name": "renounceOwnership",
      "outputs": [],
      "stateMutability": "nonpayable",
      "type": "function"
    },
    {
      "inputs": [
        {
          "internalType": "address",
          "name": "from",
          "type": "address"
        },
        {
          "internalType": "address",
          "name": "to",
          "type": "address"
        },
        {
          "internalType": "uint256",
          "name": "tokenId",
          "type": "uint256"
        }
      ],
      "name": "safeTransferFrom",
      "outputs": [],
      "stateMutability": "nonpayable",
      "type": "function"
    },
    {
      "inputs": [
        {
          "internalType": "address",
          "name": "from",
          "type": "address"
        },
        {
          "internalType": "address",
          "name": "to",
          "type": "address"
        },
        {
          "internalType": "uint256",
          "name": "tokenId",
          "type": "uint256"
        },
        {
          "internalType": "bytes",
          "name": "_data",
          "type": "bytes"
        }
      ],
      "name": "safeTransferFrom",
      "outputs": [],
      "stateMutability": "nonpayable",
      "type": "function"
    },
    {
      "inputs": [
        {
          "internalType": "address",
          "name": "operator",
          "type": "address"
        },
        {
          "internalType": "bool",
          "name": "approved",
          "type": "bool"
        }
      ],
      "name": "setApprovalForAll",
      "outputs": [],
      "stateMutability": "nonpayable",
      "type": "function"
    },
    {
      "inputs": [
        {
          "internalType": "bytes4",
          "name": "interfaceId",
          "type": "bytes4"
        }
      ],
      "name": "supportsInterface",
      "outputs": [
        {
          "internalType": "bool",
          "name": "",
          "type": "bool"
        }
      ],
      "stateMutability": "view",
      "type": "function"
    },
    {
      "inputs": [],
      "name": "symbol",
      "outputs": [
        {
          "internalType": "string",
          "name": "",
          "type": "string"
        }
      ],
      "stateMutability": "view",
      "type": "function"
    },
    {
      "inputs": [
        {
          "internalType": "uint256",
          "name": "tokenId",
          "type": "uint256"
        }
      ],
      "name": "tokenURI",
      "outputs": [
        {
          "internalType": "string",
          "name": "",
          "type": "string"
        }
      ],
      "stateMutability": "view",
      "type": "function"
    },
    {
      "inputs": [
        {
          "internalType": "address",
          "name": "from",
          "type": "address"
        },
        {
          "internalType": "address",
          "name": "to",
          "type": "address"
        },
        {
          "internalType": "uint256",
          "name": "tokenId",
          "type": "uint256"
        }
      ],
      "name": "transferFrom",
      "outputs": [],
      "stateMutability": "nonpayable",
      "type": "function"
    },
    {
      "inputs": [
        {
          "internalType": "address",
          "name": "newOwner",
          "type": "address"
        }
      ],
      "name": "transferOwnership",
      "outputs": [],
      "stateMutability": "nonpayable",
      "type": "function"
    }
  ],
  "bytecode": "0x6080604052600a60095560405180610160016040528061012f815260200162004b5361012f9139600a90805190602001906200003d92919062000baa565b50604051806101a001604052806040518060400160405280600781526020017f417765736f6d650000000000000000000000000000000000000000000000000081525081526020016040518060400160405280600581526020017f477265617400000000000000000000000000000000000000000000000000000081525081526020016040518060400160405280600b81526020017f4d61676e69666963656e7400000000000000000000000000000000000000000081525081526020016040518060400160405280600a81526020017f466c616d626f79616e740000000000000000000000000000000000000000000081525081526020016040518060400160405280600a81526020017f416d626976616c656e740000000000000000000000000000000000000000000081525081526020016040518060400160405280600781526020017f5374796c6973680000000000000000000000000000000000000000000000000081525081526020016040518060400160405280600581526020017f456c64657200000000000000000000000000000000000000000000000000000081525081526020016040518060400160405280600481526020017f426f6c640000000000000000000000000000000000000000000000000000000081525081526020016040518060400160405280600581526020017f466965727900000000000000000000000000000000000000000000000000000081525081526020016040518060400160405280600781526020017f4665617266756c0000000000000000000000000000000000000000000000000081525081526020016040518060400160405280600781526020017f50616e69636b790000000000000000000000000000000000000000000000000081525081526020016040518060400160405280600981526020017f446570726573736564000000000000000000000000000000000000000000000081525081526020016040518060400160405280600a81526020017f456d706174686574696300000000000000000000000000000000000000000000815250815250600b90600d6200035992919062000c3b565b506040518061018001604052806040518060400160405280600581526020017f4265616e7300000000000000000000000000000000000000000000000000000081525081526020016040518060400160405280600581526020017f437572727900000000000000000000000000000000000000000000000000000081525081526020016040518060400160405280600681526020017f427572676572000000000000000000000000000000000000000000000000000081525081526020016040518060400160405280600581526020017f427265616400000000000000000000000000000000000000000000000000000081525081526020016040518060400160405280600881526020017f426167756574746500000000000000000000000000000000000000000000000081525081526020016040518060400160405280600581526020017f506173746100000000000000000000000000000000000000000000000000000081525081526020016040518060400160405280600781526020017f43757063616b650000000000000000000000000000000000000000000000000081525081526020016040518060400160405280600881526020017f4d757368726f6f6d00000000000000000000000000000000000000000000000081525081526020016040518060400160405280600481526020017f536f75700000000000000000000000000000000000000000000000000000000081525081526020016040518060400160405280600981526020017f4d696c6b7368616b65000000000000000000000000000000000000000000000081525081526020016040518060400160405280600881526020017f53616e647769636800000000000000000000000000000000000000000000000081525081526020016040518060400160405280600581526020017f53616c6164000000000000000000000000000000000000000000000000000000815250815250600c90600c6200063a92919062000ca2565b506040518061020001604052806040518060400160405280600481526020017f4b696e670000000000000000000000000000000000000000000000000000000081525081526020016040518060400160405280600481526020017f44756b650000000000000000000000000000000000000000000000000000000081525081526020016040518060400160405280600781526020017f537461726d616e0000000000000000000000000000000000000000000000000081525081526020016040518060400160405280600881526020017f537461726769726c00000000000000000000000000000000000000000000000081525081526020016040518060400160405280600881526020017f4368616d70696f6e00000000000000000000000000000000000000000000000081525081526020016040518060400160405280600581526020017f517565656e00000000000000000000000000000000000000000000000000000081525081526020016040518060400160405280600881526020017f5072696e6365737300000000000000000000000000000000000000000000000081525081526020016040518060400160405280600981526020017f476c61646961746f72000000000000000000000000000000000000000000000081525081526020016040518060400160405280600781526020017f57617272696f720000000000000000000000000000000000000000000000000081525081526020016040518060400160405280600981526020017f507269657374657373000000000000000000000000000000000000000000000081525081526020016040518060400160405280600681526020017f507269657374000000000000000000000000000000000000000000000000000081525081526020016040518060400160405280600681526020017f426973686f70000000000000000000000000000000000000000000000000000081525081526020016040518060400160405280600b81526020017f4c6567696f6e6e6169726500000000000000000000000000000000000000000081525081526020016040518060400160405280600681526020017f4a6573746572000000000000000000000000000000000000000000000000000081525081526020016040518060400160405280600681526020017f4b6e69676874000000000000000000000000000000000000000000000000000081525081526020016040518060400160405280600a81526020017f426c61636b736d69746800000000000000000000000000000000000000000000815250815250600d90601062000a0792919062000d09565b5034801562000a1557600080fd5b506040518060400160405280600c81526020017f417765736f6d65536175636500000000000000000000000000000000000000008152506040518060400160405280600681526020017f33574f5244530000000000000000000000000000000000000000000000000000815250816000908051906020019062000a9a92919062000baa565b50806001908051906020019062000ab392919062000baa565b50505062000ad662000aca62000adc60201b60201c565b62000ae460201b60201c565b62000e62565b600033905090565b6000600760009054906101000a900473ffffffffffffffffffffffffffffffffffffffff16905081600760006101000a81548173ffffffffffffffffffffffffffffffffffffffff021916908373ffffffffffffffffffffffffffffffffffffffff1602179055508173ffffffffffffffffffffffffffffffffffffffff168173ffffffffffffffffffffffffffffffffffffffff167f8be0079c531659141344cd1fd0a4f28419497f9722a3daafe3b4186f6b6457e060405160405180910390a35050565b82805462000bb89062000dfd565b90600052602060002090601f01602090048101928262000bdc576000855562000c28565b82601f1062000bf757805160ff191683800117855562000c28565b8280016001018555821562000c28579182015b8281111562000c2757825182559160200191906001019062000c0a565b5b50905062000c37919062000d70565b5090565b82805482825590600052602060002090810192821562000c8f579160200282015b8281111562000c8e57825182908051906020019062000c7d92919062000baa565b509160200191906001019062000c5c565b5b50905062000c9e919062000d8f565b5090565b82805482825590600052602060002090810192821562000cf6579160200282015b8281111562000cf557825182908051906020019062000ce492919062000baa565b509160200191906001019062000cc3565b5b50905062000d05919062000d8f565b5090565b82805482825590600052602060002090810192821562000d5d579160200282015b8281111562000d5c57825182908051906020019062000d4b92919062000baa565b509160200191906001019062000d2a565b5b50905062000d6c919062000d8f565b5090565b5b8082111562000d8b57600081600090555060010162000d71565b5090565b5b8082111562000db3576000818162000da9919062000db7565b5060010162000d90565b5090565b50805462000dc59062000dfd565b6000825580601f1062000dd9575062000dfa565b601f01602090049060005260206000209081019062000df9919062000d70565b5b50565b6000600282049050600182168062000e1657607f821691505b6020821081141562000e2d5762000e2c62000e33565b5b50919050565b7f4e487b7100000000000000000000000000000000000000000000000000000000600052602260045260246000fd5b613ce18062000e726000396000f3fe60806040526004361061012a5760003560e01c8063715018a6116100ab578063b88d4fde1161006f578063b88d4fde14610404578063c575757a1461042d578063c87b56dd1461046a578063de9d132f146104a7578063e985e9c5146104b1578063f2fde38b146104ee5761012a565b8063715018a6146103315780638da5cb5b1461034857806395d89b4114610373578063a22cb4651461039e578063b187301f146103c75761012a565b806323b872dd116100f257806323b872dd146102285780632de38d681461025157806342842e0e1461028e5780636352211e146102b757806370a08231146102f45761012a565b806301ffc9a71461012f578063060475901461016c57806306fdde0314610197578063081812fc146101c2578063095ea7b3146101ff575b600080fd5b34801561013b57600080fd5b50610156600480360381019061015191906127cc565b610517565b604051610163919061353a565b60405180910390f35b34801561017857600080fd5b506101816105f9565b60405161018e91906137f7565b60405180910390f35b3480156101a357600080fd5b506101ac61060a565b6040516101b99190613555565b60405180910390f35b3480156101ce57600080fd5b506101e960048036038101906101e4919061281e565b61069c565b6040516101f691906134aa565b60405180910390f35b34801561020b57600080fd5b5061022660048036038101906102219190612790565b610721565b005b34801561023457600080fd5b5061024f600480360381019061024a919061268a565b610839565b005b34801561025d57600080fd5b506102786004803603810190610273919061281e565b610899565b6040516102859190613555565b60405180910390f35b34801561029a57600080fd5b506102b560048036038101906102b0919061268a565b6109b7565b005b3480156102c357600080fd5b506102de60048036038101906102d9919061281e565b6109d7565b6040516102eb91906134aa565b60405180910390f35b34801561030057600080fd5b5061031b60048036038101906103169190612625565b610a89565b60405161032891906137f7565b60405180910390f35b34801561033d57600080fd5b50610346610b41565b005b34801561035457600080fd5b5061035d610bc9565b60405161036a91906134aa565b60405180910390f35b34801561037f57600080fd5b50610388610bf3565b6040516103959190613555565b60405180910390f35b3480156103aa57600080fd5b506103c560048036038101906103c09190612754565b610c85565b005b3480156103d357600080fd5b506103ee60048036038101906103e9919061281e565b610c9b565b6040516103fb9190613555565b60405180910390f35b34801561041057600080fd5b5061042b600480360381019061042691906126d9565b610db9565b005b34801561043957600080fd5b50610454600480360381019061044f919061281e565b610e1b565b6040516104619190613555565b60405180910390f35b34801561047657600080fd5b50610491600480360381019061048c919061281e565b610f39565b60405161049e9190613555565b60405180910390f35b6104af61108b565b005b3480156104bd57600080fd5b506104d860048036038101906104d3919061264e565b6112db565b6040516104e5919061353a565b60405180910390f35b3480156104fa57600080fd5b5061051560048036038101906105109190612625565b61136f565b005b60007f80ac58cd000000000000000000000000000000000000000000000000000000007bffffffffffffffffffffffffffffffffffffffffffffffffffffffff1916827bffffffffffffffffffffffffffffffffffffffffffffffffffffffff191614806105e257507f5b5e139f000000000000000000000000000000000000000000000000000000007bffffffffffffffffffffffffffffffffffffffffffffffffffffffff1916827bffffffffffffffffffffffffffffffffffffffffffffffffffffffff1916145b806105f257506105f182611467565b5b9050919050565b600061060560086114d1565b905090565b60606000805461061990613a96565b80601f016020809104026020016040519081016040528092919081815260200182805461064590613a96565b80156106925780601f1061066757610100808354040283529160200191610692565b820191906000526020600020905b81548152906001019060200180831161067557829003601f168201915b5050505050905090565b60006106a7826114df565b6106e6576040517f08c379a00000000000000000000000000000000000000000000000000000000081526004016106dd90613717565b60405180910390fd5b6004600083815260200190815260200160002060009054906101000a900473ffffffffffffffffffffffffffffffffffffffff169050919050565b600061072c826109d7565b90508073ffffffffffffffffffffffffffffffffffffffff168373ffffffffffffffffffffffffffffffffffffffff16141561079d576040517f08c379a000000000000000000000000000000000000000000000000000000000815260040161079490613797565b60405180910390fd5b8073ffffffffffffffffffffffffffffffffffffffff166107bc61154b565b73ffffffffffffffffffffffffffffffffffffffff1614806107eb57506107ea816107e561154b565b6112db565b5b61082a576040517f08c379a000000000000000000000000000000000000000000000000000000000815260040161082190613657565b60405180910390fd5b6108348383611553565b505050565b61084a61084461154b565b8261160c565b610889576040517f08c379a0000000000000000000000000000000000000000000000000000000008152600401610880906137d7565b60405180910390fd5b6108948383836116ea565b505050565b606060006108cd6108a984611946565b6040516020016108b99190613488565b604051602081830303815290604052611af3565b9050600b80549050816108e09190613b11565b9050600b818154811061091c577f4e487b7100000000000000000000000000000000000000000000000000000000600052603260045260246000fd5b90600052602060002001805461093190613a96565b80601f016020809104026020016040519081016040528092919081815260200182805461095d90613a96565b80156109aa5780601f1061097f576101008083540402835291602001916109aa565b820191906000526020600020905b81548152906001019060200180831161098d57829003601f168201915b5050505050915050919050565b6109d283838360405180602001604052806000815250610db9565b505050565b6000806002600084815260200190815260200160002060009054906101000a900473ffffffffffffffffffffffffffffffffffffffff169050600073ffffffffffffffffffffffffffffffffffffffff168173ffffffffffffffffffffffffffffffffffffffff161415610a80576040517f08c379a0000000000000000000000000000000000000000000000000000000008152600401610a7790613697565b60405180910390fd5b80915050919050565b60008073ffffffffffffffffffffffffffffffffffffffff168273ffffffffffffffffffffffffffffffffffffffff161415610afa576040517f08c379a0000000000000000000000000000000000000000000000000000000008152600401610af190613677565b60405180910390fd5b600360008373ffffffffffffffffffffffffffffffffffffffff1673ffffffffffffffffffffffffffffffffffffffff168152602001908152602001600020549050919050565b610b4961154b565b73ffffffffffffffffffffffffffffffffffffffff16610b67610bc9565b73ffffffffffffffffffffffffffffffffffffffff1614610bbd576040517f08c379a0000000000000000000000000000000000000000000000000000000008152600401610bb490613737565b60405180910390fd5b610bc76000611b26565b565b6000600760009054906101000a900473ffffffffffffffffffffffffffffffffffffffff16905090565b606060018054610c0290613a96565b80601f0160208091040260200160405190810160405280929190818152602001828054610c2e90613a96565b8015610c7b5780601f10610c5057610100808354040283529160200191610c7b565b820191906000526020600020905b815481529060010190602001808311610c5e57829003601f168201915b5050505050905090565b610c97610c9061154b565b8383611bec565b5050565b60606000610ccf610cab84611946565b604051602001610cbb91906133dd565b604051602081830303815290604052611af3565b9050600c8054905081610ce29190613b11565b9050600c8181548110610d1e577f4e487b7100000000000000000000000000000000000000000000000000000000600052603260045260246000fd5b906000526020600020018054610d3390613a96565b80601f0160208091040260200160405190810160405280929190818152602001828054610d5f90613a96565b8015610dac5780601f10610d8157610100808354040283529160200191610dac565b820191906000526020600020905b815481529060010190602001808311610d8f57829003601f168201915b5050505050915050919050565b610dca610dc461154b565b8361160c565b610e09576040517f08c379a0000000000000000000000000000000000000000000000000000000008152600401610e00906137d7565b60405180910390fd5b610e1584848484611d59565b50505050565b60606000610e4f610e2b84611946565b604051602001610e3b91906133ff565b604051602081830303815290604052611af3565b9050600d8054905081610e629190613b11565b9050600d8181548110610e9e577f4e487b7100000000000000000000000000000000000000000000000000000000600052603260045260246000fd5b906000526020600020018054610eb390613a96565b80601f0160208091040260200160405190810160405280929190818152602001828054610edf90613a96565b8015610f2c5780601f10610f0157610100808354040283529160200191610f2c565b820191906000526020600020905b815481529060010190602001808311610f0f57829003601f168201915b5050505050915050919050565b6060610f44826114df565b610f83576040517f08c379a0000000000000000000000000000000000000000000000000000000008152600401610f7a906136f7565b60405180910390fd5b6000600660008481526020019081526020016000208054610fa390613a96565b80601f0160208091040260200160405190810160405280929190818152602001828054610fcf90613a96565b801561101c5780601f10610ff15761010080835404028352916020019161101c565b820191906000526020600020905b815481529060010190602001808311610fff57829003601f168201915b50505050509050600061102d611db5565b9050600081511415611043578192505050611086565b600082511115611078578082604051602001611060929190613359565b60405160208183030381529060405292505050611086565b61108184611dcc565b925050505b919050565b61109361154b565b73ffffffffffffffffffffffffffffffffffffffff166110b1610bc9565b73ffffffffffffffffffffffffffffffffffffffff1614611107576040517f08c379a00000000000000000000000000000000000000000000000000000000081526004016110fe90613737565b60405180910390fd5b60095461111460086114d1565b10611154576040517f08c379a000000000000000000000000000000000000000000000000000000000815260040161114b906137b7565b60405180910390fd5b655af3107a4000341461119c576040517f08c379a000000000000000000000000000000000000000000000000000000000815260040161119390613617565b60405180910390fd5b60006111a860086114d1565b905060006111b582610899565b905060006111c283610c9b565b905060006111cf84610e1b565b905060008383836040516020016111e89392919061337d565b60405160208183030381529060405290506000600a8260405160200161120f9291906133ae565b604051602081830303815290604052905060006112548361122f84611e73565b604051602001611240929190613421565b604051602081830303815290604052611e73565b90506000816040516020016112699190613466565b60405160208183030381529060405290506112843389612031565b61128e888261204f565b61129860086120c3565b7febb98688741ffa4c7589bf325de30cf7becb63de567842e1ccdb6cb949fdc82c33896040516112c9929190613511565b60405180910390a15050505050505050565b6000600560008473ffffffffffffffffffffffffffffffffffffffff1673ffffffffffffffffffffffffffffffffffffffff16815260200190815260200160002060008373ffffffffffffffffffffffffffffffffffffffff1673ffffffffffffffffffffffffffffffffffffffff16815260200190815260200160002060009054906101000a900460ff16905092915050565b61137761154b565b73ffffffffffffffffffffffffffffffffffffffff16611395610bc9565b73ffffffffffffffffffffffffffffffffffffffff16146113eb576040517f08c379a00000000000000000000000000000000000000000000000000000000081526004016113e290613737565b60405180910390fd5b600073ffffffffffffffffffffffffffffffffffffffff168173ffffffffffffffffffffffffffffffffffffffff16141561145b576040517f08c379a000000000000000000000000000000000000000000000000000000000815260040161145290613597565b60405180910390fd5b61146481611b26565b50565b60007f01ffc9a7000000000000000000000000000000000000000000000000000000007bffffffffffffffffffffffffffffffffffffffffffffffffffffffff1916827bffffffffffffffffffffffffffffffffffffffffffffffffffffffff1916149050919050565b600081600001549050919050565b60008073ffffffffffffffffffffffffffffffffffffffff166002600084815260200190815260200160002060009054906101000a900473ffffffffffffffffffffffffffffffffffffffff1673ffffffffffffffffffffffffffffffffffffffff1614159050919050565b600033905090565b816004600083815260200190815260200160002060006101000a81548173ffffffffffffffffffffffffffffffffffffffff021916908373ffffffffffffffffffffffffffffffffffffffff160217905550808273ffffffffffffffffffffffffffffffffffffffff166115c6836109d7565b73ffffffffffffffffffffffffffffffffffffffff167f8c5be1e5ebec7d5bd14f71427d1e84f3dd0314c0f7b2291e5b200ac8c7c3b92560405160405180910390a45050565b6000611617826114df565b611656576040517f08c379a000000000000000000000000000000000000000000000000000000000815260040161164d90613637565b60405180910390fd5b6000611661836109d7565b90508073ffffffffffffffffffffffffffffffffffffffff168473ffffffffffffffffffffffffffffffffffffffff1614806116d057508373ffffffffffffffffffffffffffffffffffffffff166116b88461069c565b73ffffffffffffffffffffffffffffffffffffffff16145b806116e157506116e081856112db565b5b91505092915050565b8273ffffffffffffffffffffffffffffffffffffffff1661170a826109d7565b73ffffffffffffffffffffffffffffffffffffffff1614611760576040517f08c379a000000000000000000000000000000000000000000000000000000000815260040161175790613757565b60405180910390fd5b600073ffffffffffffffffffffffffffffffffffffffff168273ffffffffffffffffffffffffffffffffffffffff1614156117d0576040517f08c379a00000000000000000000000000000000000000000000000000000000081526004016117c7906135d7565b60405180910390fd5b6117db8383836120d9565b6117e6600082611553565b6001600360008573ffffffffffffffffffffffffffffffffffffffff1673ffffffffffffffffffffffffffffffffffffffff168152602001908152602001600020600082825461183691906139ac565b925050819055506001600360008473ffffffffffffffffffffffffffffffffffffffff1673ffffffffffffffffffffffffffffffffffffffff168152602001908152602001600020600082825461188d91906138cb565b92505081905550816002600083815260200190815260200160002060006101000a81548173ffffffffffffffffffffffffffffffffffffffff021916908373ffffffffffffffffffffffffffffffffffffffff160217905550808273ffffffffffffffffffffffffffffffffffffffff168473ffffffffffffffffffffffffffffffffffffffff167fddf252ad1be2c89b69c2b068fc378daa952ba7f163c4a11628f55a4df523b3ef60405160405180910390a4505050565b6060600082141561198e576040518060400160405280600181526020017f30000000000000000000000000000000000000000000000000000000000000008152509050611aee565b600082905060005b600082146119c05780806119a990613ac8565b915050600a826119b99190613921565b9150611996565b60008167ffffffffffffffff811115611a02577f4e487b7100000000000000000000000000000000000000000000000000000000600052604160045260246000fd5b6040519080825280601f01601f191660200182016040528015611a345781602001600182028036833780820191505090505b5090505b60008514611ae757600182611a4d91906139ac565b9150600a85611a5c9190613b11565b6030611a6891906138cb565b60f81b818381518110611aa4577f4e487b7100000000000000000000000000000000000000000000000000000000600052603260045260246000fd5b60200101907effffffffffffffffffffffffffffffffffffffffffffffffffffffffffffff1916908160001a905350600a85611ae09190613921565b9450611a38565b8093505050505b919050565b600081604051602001611b069190613342565b6040516020818303038152906040528051906020012060001c9050919050565b6000600760009054906101000a900473ffffffffffffffffffffffffffffffffffffffff16905081600760006101000a81548173ffffffffffffffffffffffffffffffffffffffff021916908373ffffffffffffffffffffffffffffffffffffffff1602179055508173ffffffffffffffffffffffffffffffffffffffff168173ffffffffffffffffffffffffffffffffffffffff167f8be0079c531659141344cd1fd0a4f28419497f9722a3daafe3b4186f6b6457e060405160405180910390a35050565b8173ffffffffffffffffffffffffffffffffffffffff168373ffffffffffffffffffffffffffffffffffffffff161415611c5b576040517f08c379a0000000000000000000000000000000000000000000000000000000008152600401611c52906135f7565b60405180910390fd5b80600560008573ffffffffffffffffffffffffffffffffffffffff1673ffffffffffffffffffffffffffffffffffffffff16815260200190815260200160002060008473ffffffffffffffffffffffffffffffffffffffff1673ffffffffffffffffffffffffffffffffffffffff16815260200190815260200160002060006101000a81548160ff0219169083151502179055508173ffffffffffffffffffffffffffffffffffffffff168373ffffffffffffffffffffffffffffffffffffffff167f17307eab39ab6107e8899845ad3d59bd9653f200f220920489ca2b5937696c3183604051611d4c919061353a565b60405180910390a3505050565b611d648484846116ea565b611d70848484846120de565b611daf576040517f08c379a0000000000000000000000000000000000000000000000000000000008152600401611da690613577565b60405180910390fd5b50505050565b606060405180602001604052806000815250905090565b6060611dd7826114df565b611e16576040517f08c379a0000000000000000000000000000000000000000000000000000000008152600401611e0d90613777565b60405180910390fd5b6000611e20611db5565b90506000815111611e405760405180602001604052806000815250611e6b565b80611e4a84611946565b604051602001611e5b929190613359565b6040516020818303038152906040525b915050919050565b60606000825190506000811415611e9c576040518060200160405280600081525091505061202c565b60006003600283611ead91906138cb565b611eb79190613921565b6004611ec39190613952565b90506000602082611ed491906138cb565b67ffffffffffffffff811115611f13577f4e487b7100000000000000000000000000000000000000000000000000000000600052604160045260246000fd5b6040519080825280601f01601f191660200182016040528015611f455781602001600182028036833780820191505090505b5090506000604051806060016040528060408152602001613c6c604091399050600181016020830160005b86811015611fe95760038101905062ffffff818a015116603f8160121c168401518060081b905060ff603f83600c1c1686015116810190508060081b905060ff603f8360061c1686015116810190508060081b905060ff603f831686015116810190508060e01b90508084526004840193505050611f70565b50600386066001811461200357600281146120135761201e565b613d3d60f01b600283035261201e565b603d60f81b60018303525b508484525050819450505050505b919050565b61204b828260405180602001604052806000815250612275565b5050565b612058826114df565b612097576040517f08c379a000000000000000000000000000000000000000000000000000000000815260040161208e906136b7565b60405180910390fd5b806006600084815260200190815260200160002090805190602001906120be9291906124b1565b505050565b6001816000016000828254019250508190555050565b505050565b60006120ff8473ffffffffffffffffffffffffffffffffffffffff166122d0565b15612268578373ffffffffffffffffffffffffffffffffffffffff1663150b7a0261212861154b565b8786866040518563ffffffff1660e01b815260040161214a94939291906134c5565b602060405180830381600087803b15801561216457600080fd5b505af192505050801561219557506040513d601f19601f8201168201806040525081019061219291906127f5565b60015b612218573d80600081146121c5576040519150601f19603f3d011682016040523d82523d6000602084013e6121ca565b606091505b50600081511415612210576040517f08c379a000000000000000000000000000000000000000000000000000000000815260040161220790613577565b60405180910390fd5b805181602001fd5b63150b7a0260e01b7bffffffffffffffffffffffffffffffffffffffffffffffffffffffff1916817bffffffffffffffffffffffffffffffffffffffffffffffffffffffff19161491505061226d565b600190505b949350505050565b61227f83836122e3565b61228c60008484846120de565b6122cb576040517f08c379a00000000000000000000000000000000000000000000000000000000081526004016122c290613577565b60405180910390fd5b505050565b600080823b905060008111915050919050565b600073ffffffffffffffffffffffffffffffffffffffff168273ffffffffffffffffffffffffffffffffffffffff161415612353576040517f08c379a000000000000000000000000000000000000000000000000000000000815260040161234a906136d7565b60405180910390fd5b61235c816114df565b1561239c576040517f08c379a0000000000000000000000000000000000000000000000000000000008152600401612393906135b7565b60405180910390fd5b6123a8600083836120d9565b6001600360008473ffffffffffffffffffffffffffffffffffffffff1673ffffffffffffffffffffffffffffffffffffffff16815260200190815260200160002060008282546123f891906138cb565b92505081905550816002600083815260200190815260200160002060006101000a81548173ffffffffffffffffffffffffffffffffffffffff021916908373ffffffffffffffffffffffffffffffffffffffff160217905550808273ffffffffffffffffffffffffffffffffffffffff16600073ffffffffffffffffffffffffffffffffffffffff167fddf252ad1be2c89b69c2b068fc378daa952ba7f163c4a11628f55a4df523b3ef60405160405180910390a45050565b8280546124bd90613a96565b90600052602060002090601f0160209004810192826124df5760008555612526565b82601f106124f857805160ff1916838001178555612526565b82800160010185558215612526579182015b8281111561252557825182559160200191906001019061250a565b5b5090506125339190612537565b5090565b5b80821115612550576000816000905550600101612538565b5090565b600061256761256284613843565b613812565b90508281526020810184848401111561257f57600080fd5b61258a848285613a54565b509392505050565b6000813590506125a181613c0f565b92915050565b6000813590506125b681613c26565b92915050565b6000813590506125cb81613c3d565b92915050565b6000815190506125e081613c3d565b92915050565b600082601f8301126125f757600080fd5b8135612607848260208601612554565b91505092915050565b60008135905061261f81613c54565b92915050565b60006020828403121561263757600080fd5b600061264584828501612592565b91505092915050565b6000806040838503121561266157600080fd5b600061266f85828601612592565b925050602061268085828601612592565b9150509250929050565b60008060006060848603121561269f57600080fd5b60006126ad86828701612592565b93505060206126be86828701612592565b92505060406126cf86828701612610565b9150509250925092565b600080600080608085870312156126ef57600080fd5b60006126fd87828801612592565b945050602061270e87828801612592565b935050604061271f87828801612610565b925050606085013567ffffffffffffffff81111561273c57600080fd5b612748878288016125e6565b91505092959194509250565b6000806040838503121561276757600080fd5b600061277585828601612592565b9250506020612786858286016125a7565b9150509250929050565b600080604083850312156127a357600080fd5b60006127b185828601612592565b92505060206127c285828601612610565b9150509250929050565b6000602082840312156127de57600080fd5b60006127ec848285016125bc565b91505092915050565b60006020828403121561280757600080fd5b6000612815848285016125d1565b91505092915050565b60006020828403121561283057600080fd5b600061283e84828501612610565b91505092915050565b612850816139e0565b82525050565b61285f816139f2565b82525050565b600061287082613888565b61287a818561389e565b935061288a818560208601613a63565b61289381613bfe565b840191505092915050565b60006128a982613893565b6128b381856138af565b93506128c3818560208601613a63565b6128cc81613bfe565b840191505092915050565b60006128e282613893565b6128ec81856138c0565b93506128fc818560208601613a63565b80840191505092915050565b6000815461291581613a96565b61291f81866138c0565b9450600182166000811461293a576001811461294b5761297e565b60ff1983168652818601935061297e565b61295485613873565b60005b8381101561297657815481890152600182019150602081019050612957565b838801955050505b50505092915050565b60006129946032836138af565b91507f4552433732313a207472616e7366657220746f206e6f6e20455243373231526560008301527f63656976657220696d706c656d656e74657200000000000000000000000000006020830152604082019050919050565b60006129fa6026836138af565b91507f4f776e61626c653a206e6577206f776e657220697320746865207a65726f206160008301527f64647265737300000000000000000000000000000000000000000000000000006020830152604082019050919050565b6000612a60601c836138af565b91507f4552433732313a20746f6b656e20616c7265616479206d696e746564000000006000830152602082019050919050565b6000612aa0600a836138c0565b91507f6973616e6577776f7264000000000000000000000000000000000000000000006000830152600a82019050919050565b6000612ae0600f836138c0565b91507f7468697264576f72646275746e657700000000000000000000000000000000006000830152600f82019050919050565b6000612b206024836138af565b91507f4552433732313a207472616e7366657220746f20746865207a65726f2061646460008301527f72657373000000000000000000000000000000000000000000000000000000006020830152604082019050919050565b6000612b866019836138af565b91507f4552433732313a20617070726f766520746f2063616c6c6572000000000000006000830152602082019050919050565b6000612bc66063836138c0565b91507f222c20226465736372697074696f6e223a20224120686967686c79206163636c60008301527f61696d656420636f6c6c656374696f6e206f6620737175617265732e222c202260208301527f696d616765223a2022646174613a696d6167652f7376672b786d6c3b6261736560408301527f36342c00000000000000000000000000000000000000000000000000000000006060830152606382019050919050565b6000612c78602a836138af565b91507f4e65656420746f2070617920302e3030303120657468657220666f722074686960008301527f73207075726368617365000000000000000000000000000000000000000000006020830152604082019050919050565b6000612cde602c836138af565b91507f4552433732313a206f70657261746f7220717565727920666f72206e6f6e657860008301527f697374656e7420746f6b656e00000000000000000000000000000000000000006020830152604082019050919050565b6000612d44600d836138c0565b91507f3c2f746578743e3c2f7376673e000000000000000000000000000000000000006000830152600d82019050919050565b6000612d846038836138af565b91507f4552433732313a20617070726f76652063616c6c6572206973206e6f74206f7760008301527f6e6572206e6f7220617070726f76656420666f7220616c6c00000000000000006020830152604082019050919050565b6000612dea602a836138af565b91507f4552433732313a2062616c616e636520717565727920666f7220746865207a6560008301527f726f2061646472657373000000000000000000000000000000000000000000006020830152604082019050919050565b6000612e506029836138af565b91507f4552433732313a206f776e657220717565727920666f72206e6f6e657869737460008301527f656e7420746f6b656e00000000000000000000000000000000000000000000006020830152604082019050919050565b6000612eb6602e836138af565b91507f45524337323155524953746f726167653a2055524920736574206f66206e6f6e60008301527f6578697374656e7420746f6b656e0000000000000000000000000000000000006020830152604082019050919050565b6000612f1c6002836138c0565b91507f227d0000000000000000000000000000000000000000000000000000000000006000830152600282019050919050565b6000612f5c6020836138af565b91507f4552433732313a206d696e7420746f20746865207a65726f20616464726573736000830152602082019050919050565b6000612f9c6031836138af565b91507f45524337323155524953746f726167653a2055524920717565727920666f722060008301527f6e6f6e6578697374656e7420746f6b656e0000000000000000000000000000006020830152604082019050919050565b6000613002602c836138af565b91507f4552433732313a20617070726f76656420717565727920666f72206e6f6e657860008301527f697374656e7420746f6b656e00000000000000000000000000000000000000006020830152604082019050919050565b60006130686020836138af565b91507f4f776e61626c653a2063616c6c6572206973206e6f7420746865206f776e65726000830152602082019050919050565b60006130a86029836138af565b91507f4552433732313a207472616e73666572206f6620746f6b656e2074686174206960008301527f73206e6f74206f776e00000000000000000000000000000000000000000000006020830152604082019050919050565b600061310e602f836138af565b91507f4552433732314d657461646174613a2055524920717565727920666f72206e6f60008301527f6e6578697374656e7420746f6b656e00000000000000000000000000000000006020830152604082019050919050565b6000613174600a836138c0565b91507f7b226e616d65223a2022000000000000000000000000000000000000000000006000830152600a82019050919050565b60006131b46021836138af565b91507f4552433732313a20617070726f76616c20746f2063757272656e74206f776e6560008301527f72000000000000000000000000000000000000000000000000000000000000006020830152604082019050919050565b600061321a601e836138af565b91507f4d617820436170206f66204e46547320616c7265616479206d696e74656400006000830152602082019050919050565b600061325a601d836138c0565b91507f646174613a6170706c69636174696f6e2f6a736f6e3b6261736536342c0000006000830152601d82019050919050565b600061329a6031836138af565b91507f4552433732313a207472616e736665722063616c6c6572206973206e6f74206f60008301527f776e6572206e6f7220617070726f7665640000000000000000000000000000006020830152604082019050919050565b60006133006014836138c0565b91507f776f686f6f6272616e646e657772616e646f6d730000000000000000000000006000830152601482019050919050565b61333c81613a4a565b82525050565b600061334e82846128d7565b915081905092915050565b600061336582856128d7565b915061337182846128d7565b91508190509392505050565b600061338982866128d7565b915061339582856128d7565b91506133a182846128d7565b9150819050949350505050565b60006133ba8285612908565b91506133c682846128d7565b91506133d182612d37565b91508190509392505050565b60006133e882612a93565b91506133f482846128d7565b915081905092915050565b600061340a82612ad3565b915061341682846128d7565b915081905092915050565b600061342c82613167565b915061343882856128d7565b915061344382612bb9565b915061344f82846128d7565b915061345a82612f0f565b91508190509392505050565b60006134718261324d565b915061347d82846128d7565b915081905092915050565b6000613493826132f3565b915061349f82846128d7565b915081905092915050565b60006020820190506134bf6000830184612847565b92915050565b60006080820190506134da6000830187612847565b6134e76020830186612847565b6134f46040830185613333565b81810360608301526135068184612865565b905095945050505050565b60006040820190506135266000830185612847565b6135336020830184613333565b9392505050565b600060208201905061354f6000830184612856565b92915050565b6000602082019050818103600083015261356f818461289e565b905092915050565b6000602082019050818103600083015261359081612987565b9050919050565b600060208201905081810360008301526135b0816129ed565b9050919050565b600060208201905081810360008301526135d081612a53565b9050919050565b600060208201905081810360008301526135f081612b13565b9050919050565b6000602082019050818103600083015261361081612b79565b9050919050565b6000602082019050818103600083015261363081612c6b565b9050919050565b6000602082019050818103600083015261365081612cd1565b9050919050565b6000602082019050818103600083015261367081612d77565b9050919050565b6000602082019050818103600083015261369081612ddd565b9050919050565b600060208201905081810360008301526136b081612e43565b9050919050565b600060208201905081810360008301526136d081612ea9565b9050919050565b600060208201905081810360008301526136f081612f4f565b9050919050565b6000602082019050818103600083015261371081612f8f565b9050919050565b6000602082019050818103600083015261373081612ff5565b9050919050565b600060208201905081810360008301526137508161305b565b9050919050565b600060208201905081810360008301526137708161309b565b9050919050565b6000602082019050818103600083015261379081613101565b9050919050565b600060208201905081810360008301526137b0816131a7565b9050919050565b600060208201905081810360008301526137d08161320d565b9050919050565b600060208201905081810360008301526137f08161328d565b9050919050565b600060208201905061380c6000830184613333565b92915050565b6000604051905081810181811067ffffffffffffffff8211171561383957613838613bcf565b5b8060405250919050565b600067ffffffffffffffff82111561385e5761385d613bcf565b5b601f19601f8301169050602081019050919050565b60008190508160005260206000209050919050565b600081519050919050565b600081519050919050565b600082825260208201905092915050565b600082825260208201905092915050565b600081905092915050565b60006138d682613a4a565b91506138e183613a4a565b9250827fffffffffffffffffffffffffffffffffffffffffffffffffffffffffffffffff0382111561391657613915613b42565b5b828201905092915050565b600061392c82613a4a565b915061393783613a4a565b92508261394757613946613b71565b5b828204905092915050565b600061395d82613a4a565b915061396883613a4a565b9250817fffffffffffffffffffffffffffffffffffffffffffffffffffffffffffffffff04831182151516156139a1576139a0613b42565b5b828202905092915050565b60006139b782613a4a565b91506139c283613a4a565b9250828210156139d5576139d4613b42565b5b828203905092915050565b60006139eb82613a2a565b9050919050565b60008115159050919050565b60007fffffffff0000000000000000000000000000000000000000000000000000000082169050919050565b600073ffffffffffffffffffffffffffffffffffffffff82169050919050565b6000819050919050565b82818337600083830152505050565b60005b83811015613a81578082015181840152602081019050613a66565b83811115613a90576000848401525b50505050565b60006002820490506001821680613aae57607f821691505b60208210811415613ac257613ac1613ba0565b5b50919050565b6000613ad382613a4a565b91507fffffffffffffffffffffffffffffffffffffffffffffffffffffffffffffffff821415613b0657613b05613b42565b5b600182019050919050565b6000613b1c82613a4a565b9150613b2783613a4a565b925082613b3757613b36613b71565b5b828206905092915050565b7f4e487b7100000000000000000000000000000000000000000000000000000000600052601160045260246000fd5b7f4e487b7100000000000000000000000000000000000000000000000000000000600052601260045260246000fd5b7f4e487b7100000000000000000000000000000000000000000000000000000000600052602260045260246000fd5b7f4e487b7100000000000000000000000000000000000000000000000000000000600052604160045260246000fd5b6000601f19601f8301169050919050565b613c18816139e0565b8114613c2357600080fd5b50565b613c2f816139f2565b8114613c3a57600080fd5b50565b613c46816139fe565b8114613c5157600080fd5b50565b613c5d81613a4a565b8114613c6857600080fd5b5056fe4142434445464748494a4b4c4d4e4f505152535455565758595a6162636465666768696a6b6c6d6e6f707172737475767778797a303132333435363738392b2fa2646970667358221220f6af0be7c3a340c284490cf5dad4c5c1c42e1e69db68a9f27b412d426b4e184864736f6c634300080000333c73766720786d6c6e733d27687474703a2f2f7777772e77332e6f72672f323030302f73766727207072657365727665417370656374526174696f3d27784d696e594d696e206d656574272076696577426f783d273020302033353020333530273e3c7374796c653e2e62617365207b2066696c6c3a2077686974653b20666f6e742d66616d696c793a2073657269663b20666f6e742d73697a653a20323470783b207d3c2f7374796c653e3c726563742077696474683d273130302527206865696768743d2731303025272066696c6c3d27626c61636b27202f3e3c7465787420783d273530252720793d273530252720636c6173733d27626173652720646f6d696e616e742d626173656c696e653d276d6964646c652720746578742d616e63686f723d276d6964646c65273e",
  "linkReferences": {},
  "deployedLinkReferences": {}
}