{
  "_format": "hh-sol-artifact-1",
  "contractName": "MyEpicNFT",
  "sourceName": "contracts/MyEpicNFT.sol",
  "abi": [
    {
      "inputs": [],
      "stateMutability": "nonpayable",
      "type": "constructor"
    },
    {
      "anonymous": false,
      "inputs": [
        {
          "indexed": true,
          "internalType": "address",
          "name": "owner",
          "type": "address"
        },
        {
          "indexed": true,
          "internalType": "address",
          "name": "approved",
          "type": "address"
        },
        {
          "indexed": true,
          "internalType": "uint256",
          "name": "tokenId",
          "type": "uint256"
        }
      ],
      "name": "Approval",
      "type": "event"
    },
    {
      "anonymous": false,
      "inputs": [
        {
          "indexed": true,
          "internalType": "address",
          "name": "owner",
          "type": "address"
        },
        {
          "indexed": true,
          "internalType": "address",
          "name": "operator",
          "type": "address"
        },
        {
          "indexed": false,
          "internalType": "bool",
          "name": "approved",
          "type": "bool"
        }
      ],
      "name": "ApprovalForAll",
      "type": "event"
    },
    {
      "anonymous": false,
      "inputs": [
        {
          "indexed": false,
          "internalType": "address",
          "name": "sender",
          "type": "address"
        },
        {
          "indexed": false,
          "internalType": "uint256",
          "name": "tokenId",
          "type": "uint256"
        }
      ],
      "name": "NewEpicNFTMinted",
      "type": "event"
    },
    {
      "anonymous": false,
      "inputs": [
        {
          "indexed": true,
          "internalType": "address",
          "name": "from",
          "type": "address"
        },
        {
          "indexed": true,
          "internalType": "address",
          "name": "to",
          "type": "address"
        },
        {
          "indexed": true,
          "internalType": "uint256",
          "name": "tokenId",
          "type": "uint256"
        }
      ],
      "name": "Transfer",
      "type": "event"
    },
    {
      "inputs": [
        {
          "internalType": "address",
          "name": "to",
          "type": "address"
        },
        {
          "internalType": "uint256",
          "name": "tokenId",
          "type": "uint256"
        }
      ],
      "name": "approve",
      "outputs": [],
      "stateMutability": "nonpayable",
      "type": "function"
    },
    {
      "inputs": [
        {
          "internalType": "address",
          "name": "owner",
          "type": "address"
        }
      ],
      "name": "balanceOf",
      "outputs": [
        {
          "internalType": "uint256",
          "name": "",
          "type": "uint256"
        }
      ],
      "stateMutability": "view",
      "type": "function"
    },
    {
      "inputs": [
        {
          "internalType": "uint256",
          "name": "tokenId",
          "type": "uint256"
        }
      ],
      "name": "getApproved",
      "outputs": [
        {
          "internalType": "address",
          "name": "",
          "type": "address"
        }
      ],
      "stateMutability": "view",
      "type": "function"
    },
    {
      "inputs": [],
      "name": "getTotalNFTsMintedSoFar",
      "outputs": [
        {
          "internalType": "uint256",
          "name": "",
          "type": "uint256"
        }
      ],
      "stateMutability": "view",
      "type": "function"
    },
    {
      "inputs": [
        {
          "internalType": "address",
          "name": "owner",
          "type": "address"
        },
        {
          "internalType": "address",
          "name": "operator",
          "type": "address"
        }
      ],
      "name": "isApprovedForAll",
      "outputs": [
        {
          "internalType": "bool",
          "name": "",
          "type": "bool"
        }
      ],
      "stateMutability": "view",
      "type": "function"
    },
    {
      "inputs": [],
      "name": "makeAnEpicNFT",
      "outputs": [],
      "stateMutability": "nonpayable",
      "type": "function"
    },
    {
      "inputs": [],
      "name": "name",
      "outputs": [
        {
          "internalType": "string",
          "name": "",
          "type": "string"
        }
      ],
      "stateMutability": "view",
      "type": "function"
    },
    {
      "inputs": [
        {
          "internalType": "uint256",
          "name": "tokenId",
          "type": "uint256"
        }
      ],
      "name": "ownerOf",
      "outputs": [
        {
          "internalType": "address",
          "name": "",
          "type": "address"
        }
      ],
      "stateMutability": "view",
      "type": "function"
    },
    {
      "inputs": [
        {
          "internalType": "uint256",
          "name": "tokenId",
          "type": "uint256"
        }
      ],
      "name": "pickRandomFirstWord",
      "outputs": [
        {
          "internalType": "string",
          "name": "",
          "type": "string"
        }
      ],
      "stateMutability": "view",
      "type": "function"
    },
    {
      "inputs": [
        {
          "internalType": "uint256",
          "name": "tokenId",
          "type": "uint256"
        }
      ],
      "name": "pickRandomSecondWord",
      "outputs": [
        {
          "internalType": "string",
          "name": "",
          "type": "string"
        }
      ],
      "stateMutability": "view",
      "type": "function"
    },
    {
      "inputs": [
        {
          "internalType": "uint256",
          "name": "tokenId",
          "type": "uint256"
        }
      ],
      "name": "pickRandomThirdWord",
      "outputs": [
        {
          "internalType": "string",
          "name": "",
          "type": "string"
        }
      ],
      "stateMutability": "view",
      "type": "function"
    },
    {
      "inputs": [
        {
          "internalType": "address",
          "name": "from",
          "type": "address"
        },
        {
          "internalType": "address",
          "name": "to",
          "type": "address"
        },
        {
          "internalType": "uint256",
          "name": "tokenId",
          "type": "uint256"
        }
      ],
      "name": "safeTransferFrom",
      "outputs": [],
      "stateMutability": "nonpayable",
      "type": "function"
    },
    {
      "inputs": [
        {
          "internalType": "address",
          "name": "from",
          "type": "address"
        },
        {
          "internalType": "address",
          "name": "to",
          "type": "address"
        },
        {
          "internalType": "uint256",
          "name": "tokenId",
          "type": "uint256"
        },
        {
          "internalType": "bytes",
          "name": "_data",
          "type": "bytes"
        }
      ],
      "name": "safeTransferFrom",
      "outputs": [],
      "stateMutability": "nonpayable",
      "type": "function"
    },
    {
      "inputs": [
        {
          "internalType": "address",
          "name": "operator",
          "type": "address"
        },
        {
          "internalType": "bool",
          "name": "approved",
          "type": "bool"
        }
      ],
      "name": "setApprovalForAll",
      "outputs": [],
      "stateMutability": "nonpayable",
      "type": "function"
    },
    {
      "inputs": [
        {
          "internalType": "bytes4",
          "name": "interfaceId",
          "type": "bytes4"
        }
      ],
      "name": "supportsInterface",
      "outputs": [
        {
          "internalType": "bool",
          "name": "",
          "type": "bool"
        }
      ],
      "stateMutability": "view",
      "type": "function"
    },
    {
      "inputs": [],
      "name": "symbol",
      "outputs": [
        {
          "internalType": "string",
          "name": "",
          "type": "string"
        }
      ],
      "stateMutability": "view",
      "type": "function"
    },
    {
      "inputs": [
        {
          "internalType": "uint256",
          "name": "tokenId",
          "type": "uint256"
        }
      ],
      "name": "tokenURI",
      "outputs": [
        {
          "internalType": "string",
          "name": "",
          "type": "string"
        }
      ],
      "stateMutability": "view",
      "type": "function"
    },
    {
      "inputs": [
        {
          "internalType": "address",
          "name": "from",
          "type": "address"
        },
        {
          "internalType": "address",
          "name": "to",
          "type": "address"
        },
        {
          "internalType": "uint256",
          "name": "tokenId",
          "type": "uint256"
        }
      ],
      "name": "transferFrom",
      "outputs": [],
      "stateMutability": "nonpayable",
      "type": "function"
    }
  ],
  "bytecode": "0x6080604052600a60085560405180610160016040528061012f81526020016200481e61012f9139600990805190602001906200003d92919062000bd3565b50604051806101a001604052806040518060400160405280600781526020017f417765736f6d650000000000000000000000000000000000000000000000000081525081526020016040518060400160405280600581526020017f477265617400000000000000000000000000000000000000000000000000000081525081526020016040518060400160405280600b81526020017f4d61676e69666963656e7400000000000000000000000000000000000000000081525081526020016040518060400160405280600a81526020017f466c616d626f79616e740000000000000000000000000000000000000000000081525081526020016040518060400160405280600a81526020017f416d626976616c656e740000000000000000000000000000000000000000000081525081526020016040518060400160405280600781526020017f5374796c6973680000000000000000000000000000000000000000000000000081525081526020016040518060400160405280600581526020017f456c64657200000000000000000000000000000000000000000000000000000081525081526020016040518060400160405280600481526020017f426f6c640000000000000000000000000000000000000000000000000000000081525081526020016040518060400160405280600581526020017f466965727900000000000000000000000000000000000000000000000000000081525081526020016040518060400160405280600781526020017f4665617266756c0000000000000000000000000000000000000000000000000081525081526020016040518060400160405280600781526020017f50616e69636b790000000000000000000000000000000000000000000000000081525081526020016040518060400160405280600981526020017f446570726573736564000000000000000000000000000000000000000000000081525081526020016040518060400160405280600a81526020017f456d706174686574696300000000000000000000000000000000000000000000815250815250600a90600d6200035992919062000c64565b506040518061018001604052806040518060400160405280600581526020017f4265616e7300000000000000000000000000000000000000000000000000000081525081526020016040518060400160405280600581526020017f437572727900000000000000000000000000000000000000000000000000000081525081526020016040518060400160405280600681526020017f427572676572000000000000000000000000000000000000000000000000000081525081526020016040518060400160405280600581526020017f427265616400000000000000000000000000000000000000000000000000000081525081526020016040518060400160405280600881526020017f426167756574746500000000000000000000000000000000000000000000000081525081526020016040518060400160405280600581526020017f506173746100000000000000000000000000000000000000000000000000000081525081526020016040518060400160405280600781526020017f43757063616b650000000000000000000000000000000000000000000000000081525081526020016040518060400160405280600881526020017f4d757368726f6f6d00000000000000000000000000000000000000000000000081525081526020016040518060400160405280600481526020017f536f75700000000000000000000000000000000000000000000000000000000081525081526020016040518060400160405280600981526020017f4d696c6b7368616b65000000000000000000000000000000000000000000000081525081526020016040518060400160405280600881526020017f53616e647769636800000000000000000000000000000000000000000000000081525081526020016040518060400160405280600581526020017f53616c6164000000000000000000000000000000000000000000000000000000815250815250600b90600c6200063a92919062000ccb565b506040518061020001604052806040518060400160405280600481526020017f4b696e670000000000000000000000000000000000000000000000000000000081525081526020016040518060400160405280600481526020017f44756b650000000000000000000000000000000000000000000000000000000081525081526020016040518060400160405280600781526020017f537461726d616e0000000000000000000000000000000000000000000000000081525081526020016040518060400160405280600881526020017f537461726769726c00000000000000000000000000000000000000000000000081525081526020016040518060400160405280600881526020017f4368616d70696f6e00000000000000000000000000000000000000000000000081525081526020016040518060400160405280600581526020017f517565656e00000000000000000000000000000000000000000000000000000081525081526020016040518060400160405280600881526020017f5072696e6365737300000000000000000000000000000000000000000000000081525081526020016040518060400160405280600981526020017f476c61646961746f72000000000000000000000000000000000000000000000081525081526020016040518060400160405280600781526020017f57617272696f720000000000000000000000000000000000000000000000000081525081526020016040518060400160405280600981526020017f507269657374657373000000000000000000000000000000000000000000000081525081526020016040518060400160405280600681526020017f507269657374000000000000000000000000000000000000000000000000000081525081526020016040518060400160405280600681526020017f426973686f70000000000000000000000000000000000000000000000000000081525081526020016040518060400160405280600b81526020017f4c6567696f6e6e6169726500000000000000000000000000000000000000000081525081526020016040518060400160405280600681526020017f4a6573746572000000000000000000000000000000000000000000000000000081525081526020016040518060400160405280600681526020017f4b6e69676874000000000000000000000000000000000000000000000000000081525081526020016040518060400160405280600a81526020017f426c61636b736d69746800000000000000000000000000000000000000000000815250815250600c90601062000a0792919062000d32565b5034801562000a1557600080fd5b506040518060400160405280600981526020017f5371756172654e465400000000000000000000000000000000000000000000008152506040518060400160405280600681526020017f5351554152450000000000000000000000000000000000000000000000000000815250816000908051906020019062000a9a92919062000bd3565b50806001908051906020019062000ab392919062000bd3565b50505062000b016040518060400160405280601e81526020017f54686973206973206d79204e465420636f6e74726163742e2057686f6121000081525062000b0760201b6200110f1760201c565b62000f53565b62000ba78160405160240162000b1e919062000e67565b6040516020818303038152906040527f41304fac000000000000000000000000000000000000000000000000000000007bffffffffffffffffffffffffffffffffffffffffffffffffffffffff19166020820180517bffffffffffffffffffffffffffffffffffffffffffffffffffffffff838183161783525050505062000baa60201b60201c565b50565b60008151905060006a636f6e736f6c652e6c6f679050602083016000808483855afa5050505050565b82805462000be19062000edd565b90600052602060002090601f01602090048101928262000c05576000855562000c51565b82601f1062000c2057805160ff191683800117855562000c51565b8280016001018555821562000c51579182015b8281111562000c5057825182559160200191906001019062000c33565b5b50905062000c60919062000d99565b5090565b82805482825590600052602060002090810192821562000cb8579160200282015b8281111562000cb757825182908051906020019062000ca692919062000bd3565b509160200191906001019062000c85565b5b50905062000cc7919062000db8565b5090565b82805482825590600052602060002090810192821562000d1f579160200282015b8281111562000d1e57825182908051906020019062000d0d92919062000bd3565b509160200191906001019062000cec565b5b50905062000d2e919062000db8565b5090565b82805482825590600052602060002090810192821562000d86579160200282015b8281111562000d8557825182908051906020019062000d7492919062000bd3565b509160200191906001019062000d53565b5b50905062000d95919062000db8565b5090565b5b8082111562000db457600081600090555060010162000d9a565b5090565b5b8082111562000ddc576000818162000dd2919062000de0565b5060010162000db9565b5090565b50805462000dee9062000edd565b6000825580601f1062000e02575062000e23565b601f01602090049060005260206000209081019062000e22919062000d99565b5b50565b600062000e338262000e8b565b62000e3f818562000e96565b935062000e5181856020860162000ea7565b62000e5c8162000f42565b840191505092915050565b6000602082019050818103600083015262000e83818462000e26565b905092915050565b600081519050919050565b600082825260208201905092915050565b60005b8381101562000ec757808201518184015260208101905062000eaa565b8381111562000ed7576000848401525b50505050565b6000600282049050600182168062000ef657607f821691505b6020821081141562000f0d5762000f0c62000f13565b5b50919050565b7f4e487b7100000000000000000000000000000000000000000000000000000000600052602260045260246000fd5b6000601f19601f8301169050919050565b6138bb8062000f636000396000f3fe608060405234801561001057600080fd5b50600436106101165760003560e01c806370a08231116100a2578063b88d4fde11610071578063b88d4fde14610305578063c575757a14610321578063c87b56dd14610351578063de9d132f14610381578063e985e9c51461038b57610116565b806370a082311461026b57806395d89b411461029b578063a22cb465146102b9578063b187301f146102d557610116565b8063095ea7b3116100e9578063095ea7b3146101b757806323b872dd146101d35780632de38d68146101ef57806342842e0e1461021f5780636352211e1461023b57610116565b806301ffc9a71461011b578063060475901461014b57806306fdde0314610169578063081812fc14610187575b600080fd5b6101356004803603810190610130919061250f565b6103bb565b6040516101429190613131565b60405180910390f35b61015361049d565b60405161016091906133ac565b60405180910390f35b6101716104ae565b60405161017e919061314c565b60405180910390f35b6101a1600480360381019061019c9190612561565b610540565b6040516101ae91906130a1565b60405180910390f35b6101d160048036038101906101cc91906124d3565b6105c5565b005b6101ed60048036038101906101e891906123cd565b6106dd565b005b61020960048036038101906102049190612561565b61073d565b604051610216919061314c565b60405180910390f35b610239600480360381019061023491906123cd565b61085b565b005b61025560048036038101906102509190612561565b61087b565b60405161026291906130a1565b60405180910390f35b61028560048036038101906102809190612368565b61092d565b60405161029291906133ac565b60405180910390f35b6102a36109e5565b6040516102b0919061314c565b60405180910390f35b6102d360048036038101906102ce9190612497565b610a77565b005b6102ef60048036038101906102ea9190612561565b610a8d565b6040516102fc919061314c565b60405180910390f35b61031f600480360381019061031a919061241c565b610bab565b005b61033b60048036038101906103369190612561565b610c0d565b604051610348919061314c565b60405180910390f35b61036b60048036038101906103669190612561565b610d2b565b604051610378919061314c565b60405180910390f35b610389610e7d565b005b6103a560048036038101906103a09190612391565b61107b565b6040516103b29190613131565b60405180910390f35b60007f80ac58cd000000000000000000000000000000000000000000000000000000007bffffffffffffffffffffffffffffffffffffffffffffffffffffffff1916827bffffffffffffffffffffffffffffffffffffffffffffffffffffffff1916148061048657507f5b5e139f000000000000000000000000000000000000000000000000000000007bffffffffffffffffffffffffffffffffffffffffffffffffffffffff1916827bffffffffffffffffffffffffffffffffffffffffffffffffffffffff1916145b806104965750610495826111a8565b5b9050919050565b60006104a96007611212565b905090565b6060600080546104bd9061364b565b80601f01602080910402602001604051908101604052809291908181526020018280546104e99061364b565b80156105365780601f1061050b57610100808354040283529160200191610536565b820191906000526020600020905b81548152906001019060200180831161051957829003601f168201915b5050505050905090565b600061054b82611220565b61058a576040517f08c379a00000000000000000000000000000000000000000000000000000000081526004016105819061330c565b60405180910390fd5b6004600083815260200190815260200160002060009054906101000a900473ffffffffffffffffffffffffffffffffffffffff169050919050565b60006105d08261087b565b90508073ffffffffffffffffffffffffffffffffffffffff168373ffffffffffffffffffffffffffffffffffffffff161415610641576040517f08c379a00000000000000000000000000000000000000000000000000000000081526004016106389061336c565b60405180910390fd5b8073ffffffffffffffffffffffffffffffffffffffff1661066061128c565b73ffffffffffffffffffffffffffffffffffffffff16148061068f575061068e8161068961128c565b61107b565b5b6106ce576040517f08c379a00000000000000000000000000000000000000000000000000000000081526004016106c59061324c565b60405180910390fd5b6106d88383611294565b505050565b6106ee6106e861128c565b8261134d565b61072d576040517f08c379a00000000000000000000000000000000000000000000000000000000081526004016107249061338c565b60405180910390fd5b61073883838361142b565b505050565b6060600061077161074d84611687565b60405160200161075d919061307f565b604051602081830303815290604052611834565b9050600a805490508161078491906136c6565b9050600a81815481106107c0577f4e487b7100000000000000000000000000000000000000000000000000000000600052603260045260246000fd5b9060005260206000200180546107d59061364b565b80601f01602080910402602001604051908101604052809291908181526020018280546108019061364b565b801561084e5780601f106108235761010080835404028352916020019161084e565b820191906000526020600020905b81548152906001019060200180831161083157829003601f168201915b5050505050915050919050565b61087683838360405180602001604052806000815250610bab565b505050565b6000806002600084815260200190815260200160002060009054906101000a900473ffffffffffffffffffffffffffffffffffffffff169050600073ffffffffffffffffffffffffffffffffffffffff168173ffffffffffffffffffffffffffffffffffffffff161415610924576040517f08c379a000000000000000000000000000000000000000000000000000000000815260040161091b9061328c565b60405180910390fd5b80915050919050565b60008073ffffffffffffffffffffffffffffffffffffffff168273ffffffffffffffffffffffffffffffffffffffff16141561099e576040517f08c379a00000000000000000000000000000000000000000000000000000000081526004016109959061326c565b60405180910390fd5b600360008373ffffffffffffffffffffffffffffffffffffffff1673ffffffffffffffffffffffffffffffffffffffff168152602001908152602001600020549050919050565b6060600180546109f49061364b565b80601f0160208091040260200160405190810160405280929190818152602001828054610a209061364b565b8015610a6d5780601f10610a4257610100808354040283529160200191610a6d565b820191906000526020600020905b815481529060010190602001808311610a5057829003601f168201915b5050505050905090565b610a89610a8261128c565b8383611867565b5050565b60606000610ac1610a9d84611687565b604051602001610aad9190612fd4565b604051602081830303815290604052611834565b9050600b8054905081610ad491906136c6565b9050600b8181548110610b10577f4e487b7100000000000000000000000000000000000000000000000000000000600052603260045260246000fd5b906000526020600020018054610b259061364b565b80601f0160208091040260200160405190810160405280929190818152602001828054610b519061364b565b8015610b9e5780601f10610b7357610100808354040283529160200191610b9e565b820191906000526020600020905b815481529060010190602001808311610b8157829003601f168201915b5050505050915050919050565b610bbc610bb661128c565b8361134d565b610bfb576040517f08c379a0000000000000000000000000000000000000000000000000000000008152600401610bf29061338c565b60405180910390fd5b610c07848484846119d4565b50505050565b60606000610c41610c1d84611687565b604051602001610c2d9190612ff6565b604051602081830303815290604052611834565b9050600c8054905081610c5491906136c6565b9050600c8181548110610c90577f4e487b7100000000000000000000000000000000000000000000000000000000600052603260045260246000fd5b906000526020600020018054610ca59061364b565b80601f0160208091040260200160405190810160405280929190818152602001828054610cd19061364b565b8015610d1e5780601f10610cf357610100808354040283529160200191610d1e565b820191906000526020600020905b815481529060010190602001808311610d0157829003601f168201915b5050505050915050919050565b6060610d3682611220565b610d75576040517f08c379a0000000000000000000000000000000000000000000000000000000008152600401610d6c906132ec565b60405180910390fd5b6000600660008481526020019081526020016000208054610d959061364b565b80601f0160208091040260200160405190810160405280929190818152602001828054610dc19061364b565b8015610e0e5780601f10610de357610100808354040283529160200191610e0e565b820191906000526020600020905b815481529060010190602001808311610df157829003601f168201915b505050505090506000610e1f611a30565b9050600081511415610e35578192505050610e78565b600082511115610e6a578082604051602001610e52929190612f50565b60405160208183030381529060405292505050610e78565b610e7384611a47565b925050505b919050565b600854610e8a6007611212565b10610e9457600080fd5b6000610ea06007611212565b90506000610ead8261073d565b90506000610eba83610a8d565b90506000610ec784610c0d565b90506000838383604051602001610ee093929190612f74565b60405160208183030381529060405290506000600982604051602001610f07929190612fa5565b60405160208183030381529060405290506000610f4c83610f2784611aee565b604051602001610f38929190613018565b604051602081830303815290604052611aee565b9050600081604051602001610f61919061305d565b6040516020818303038152906040529050610fb06040518060400160405280601581526020017f0a2d2d2d2d2d2d2d2d2d2d2d2d2d2d2d2d2d2d2d2d000000000000000000000081525061110f565b610fb98161110f565b610ff76040518060400160405280601581526020017f2d2d2d2d2d2d2d2d2d2d2d2d2d2d2d2d2d2d2d2d0a000000000000000000000081525061110f565b6110013389611cac565b61100b8882611cca565b6110156007611d3e565b611038604051806060016040528060258152602001613821602591398933611d54565b7febb98688741ffa4c7589bf325de30cf7becb63de567842e1ccdb6cb949fdc82c3389604051611069929190613108565b60405180910390a15050505050505050565b6000600560008473ffffffffffffffffffffffffffffffffffffffff1673ffffffffffffffffffffffffffffffffffffffff16815260200190815260200160002060008373ffffffffffffffffffffffffffffffffffffffff1673ffffffffffffffffffffffffffffffffffffffff16815260200190815260200160002060009054906101000a900460ff16905092915050565b6111a581604051602401611123919061314c565b6040516020818303038152906040527f41304fac000000000000000000000000000000000000000000000000000000007bffffffffffffffffffffffffffffffffffffffffffffffffffffffff19166020820180517bffffffffffffffffffffffffffffffffffffffffffffffffffffffff8381831617835250505050611df3565b50565b60007f01ffc9a7000000000000000000000000000000000000000000000000000000007bffffffffffffffffffffffffffffffffffffffffffffffffffffffff1916827bffffffffffffffffffffffffffffffffffffffffffffffffffffffff1916149050919050565b600081600001549050919050565b60008073ffffffffffffffffffffffffffffffffffffffff166002600084815260200190815260200160002060009054906101000a900473ffffffffffffffffffffffffffffffffffffffff1673ffffffffffffffffffffffffffffffffffffffff1614159050919050565b600033905090565b816004600083815260200190815260200160002060006101000a81548173ffffffffffffffffffffffffffffffffffffffff021916908373ffffffffffffffffffffffffffffffffffffffff160217905550808273ffffffffffffffffffffffffffffffffffffffff166113078361087b565b73ffffffffffffffffffffffffffffffffffffffff167f8c5be1e5ebec7d5bd14f71427d1e84f3dd0314c0f7b2291e5b200ac8c7c3b92560405160405180910390a45050565b600061135882611220565b611397576040517f08c379a000000000000000000000000000000000000000000000000000000000815260040161138e9061322c565b60405180910390fd5b60006113a28361087b565b90508073ffffffffffffffffffffffffffffffffffffffff168473ffffffffffffffffffffffffffffffffffffffff16148061141157508373ffffffffffffffffffffffffffffffffffffffff166113f984610540565b73ffffffffffffffffffffffffffffffffffffffff16145b806114225750611421818561107b565b5b91505092915050565b8273ffffffffffffffffffffffffffffffffffffffff1661144b8261087b565b73ffffffffffffffffffffffffffffffffffffffff16146114a1576040517f08c379a00000000000000000000000000000000000000000000000000000000081526004016114989061332c565b60405180910390fd5b600073ffffffffffffffffffffffffffffffffffffffff168273ffffffffffffffffffffffffffffffffffffffff161415611511576040517f08c379a0000000000000000000000000000000000000000000000000000000008152600401611508906131ec565b60405180910390fd5b61151c838383611e1c565b611527600082611294565b6001600360008573ffffffffffffffffffffffffffffffffffffffff1673ffffffffffffffffffffffffffffffffffffffff16815260200190815260200160002060008282546115779190613561565b925050819055506001600360008473ffffffffffffffffffffffffffffffffffffffff1673ffffffffffffffffffffffffffffffffffffffff16815260200190815260200160002060008282546115ce9190613480565b92505081905550816002600083815260200190815260200160002060006101000a81548173ffffffffffffffffffffffffffffffffffffffff021916908373ffffffffffffffffffffffffffffffffffffffff160217905550808273ffffffffffffffffffffffffffffffffffffffff168473ffffffffffffffffffffffffffffffffffffffff167fddf252ad1be2c89b69c2b068fc378daa952ba7f163c4a11628f55a4df523b3ef60405160405180910390a4505050565b606060008214156116cf576040518060400160405280600181526020017f3000000000000000000000000000000000000000000000000000000000000000815250905061182f565b600082905060005b600082146117015780806116ea9061367d565b915050600a826116fa91906134d6565b91506116d7565b60008167ffffffffffffffff811115611743577f4e487b7100000000000000000000000000000000000000000000000000000000600052604160045260246000fd5b6040519080825280601f01601f1916602001820160405280156117755781602001600182028036833780820191505090505b5090505b600085146118285760018261178e9190613561565b9150600a8561179d91906136c6565b60306117a99190613480565b60f81b8183815181106117e5577f4e487b7100000000000000000000000000000000000000000000000000000000600052603260045260246000fd5b60200101907effffffffffffffffffffffffffffffffffffffffffffffffffffffffffffff1916908160001a905350600a8561182191906134d6565b9450611779565b8093505050505b919050565b6000816040516020016118479190612f39565b6040516020818303038152906040528051906020012060001c9050919050565b8173ffffffffffffffffffffffffffffffffffffffff168373ffffffffffffffffffffffffffffffffffffffff1614156118d6576040517f08c379a00000000000000000000000000000000000000000000000000000000081526004016118cd9061320c565b60405180910390fd5b80600560008573ffffffffffffffffffffffffffffffffffffffff1673ffffffffffffffffffffffffffffffffffffffff16815260200190815260200160002060008473ffffffffffffffffffffffffffffffffffffffff1673ffffffffffffffffffffffffffffffffffffffff16815260200190815260200160002060006101000a81548160ff0219169083151502179055508173ffffffffffffffffffffffffffffffffffffffff168373ffffffffffffffffffffffffffffffffffffffff167f17307eab39ab6107e8899845ad3d59bd9653f200f220920489ca2b5937696c31836040516119c79190613131565b60405180910390a3505050565b6119df84848461142b565b6119eb84848484611e21565b611a2a576040517f08c379a0000000000000000000000000000000000000000000000000000000008152600401611a21906131ac565b60405180910390fd5b50505050565b606060405180602001604052806000815250905090565b6060611a5282611220565b611a91576040517f08c379a0000000000000000000000000000000000000000000000000000000008152600401611a889061334c565b60405180910390fd5b6000611a9b611a30565b90506000815111611abb5760405180602001604052806000815250611ae6565b80611ac584611687565b604051602001611ad6929190612f50565b6040516020818303038152906040525b915050919050565b60606000825190506000811415611b175760405180602001604052806000815250915050611ca7565b60006003600283611b289190613480565b611b3291906134d6565b6004611b3e9190613507565b90506000602082611b4f9190613480565b67ffffffffffffffff811115611b8e577f4e487b7100000000000000000000000000000000000000000000000000000000600052604160045260246000fd5b6040519080825280601f01601f191660200182016040528015611bc05781602001600182028036833780820191505090505b5090506000604051806060016040528060408152602001613846604091399050600181016020830160005b86811015611c645760038101905062ffffff818a015116603f8160121c168401518060081b905060ff603f83600c1c1686015116810190508060081b905060ff603f8360061c1686015116810190508060081b905060ff603f831686015116810190508060e01b90508084526004840193505050611beb565b506003860660018114611c7e5760028114611c8e57611c99565b613d3d60f01b6002830352611c99565b603d60f81b60018303525b508484525050819450505050505b919050565b611cc6828260405180602001604052806000815250611fb8565b5050565b611cd382611220565b611d12576040517f08c379a0000000000000000000000000000000000000000000000000000000008152600401611d09906132ac565b60405180910390fd5b80600660008481526020019081526020016000209080519060200190611d399291906121f4565b505050565b6001816000016000828254019250508190555050565b611dee838383604051602401611d6c9392919061316e565b6040516020818303038152906040527fe3849f79000000000000000000000000000000000000000000000000000000007bffffffffffffffffffffffffffffffffffffffffffffffffffffffff19166020820180517bffffffffffffffffffffffffffffffffffffffffffffffffffffffff8381831617835250505050611df3565b505050565b60008151905060006a636f6e736f6c652e6c6f679050602083016000808483855afa5050505050565b505050565b6000611e428473ffffffffffffffffffffffffffffffffffffffff16612013565b15611fab578373ffffffffffffffffffffffffffffffffffffffff1663150b7a02611e6b61128c565b8786866040518563ffffffff1660e01b8152600401611e8d94939291906130bc565b602060405180830381600087803b158015611ea757600080fd5b505af1925050508015611ed857506040513d601f19601f82011682018060405250810190611ed59190612538565b60015b611f5b573d8060008114611f08576040519150601f19603f3d011682016040523d82523d6000602084013e611f0d565b606091505b50600081511415611f53576040517f08c379a0000000000000000000000000000000000000000000000000000000008152600401611f4a906131ac565b60405180910390fd5b805181602001fd5b63150b7a0260e01b7bffffffffffffffffffffffffffffffffffffffffffffffffffffffff1916817bffffffffffffffffffffffffffffffffffffffffffffffffffffffff191614915050611fb0565b600190505b949350505050565b611fc28383612026565b611fcf6000848484611e21565b61200e576040517f08c379a0000000000000000000000000000000000000000000000000000000008152600401612005906131ac565b60405180910390fd5b505050565b600080823b905060008111915050919050565b600073ffffffffffffffffffffffffffffffffffffffff168273ffffffffffffffffffffffffffffffffffffffff161415612096576040517f08c379a000000000000000000000000000000000000000000000000000000000815260040161208d906132cc565b60405180910390fd5b61209f81611220565b156120df576040517f08c379a00000000000000000000000000000000000000000000000000000000081526004016120d6906131cc565b60405180910390fd5b6120eb60008383611e1c565b6001600360008473ffffffffffffffffffffffffffffffffffffffff1673ffffffffffffffffffffffffffffffffffffffff168152602001908152602001600020600082825461213b9190613480565b92505081905550816002600083815260200190815260200160002060006101000a81548173ffffffffffffffffffffffffffffffffffffffff021916908373ffffffffffffffffffffffffffffffffffffffff160217905550808273ffffffffffffffffffffffffffffffffffffffff16600073ffffffffffffffffffffffffffffffffffffffff167fddf252ad1be2c89b69c2b068fc378daa952ba7f163c4a11628f55a4df523b3ef60405160405180910390a45050565b8280546122009061364b565b90600052602060002090601f0160209004810192826122225760008555612269565b82601f1061223b57805160ff1916838001178555612269565b82800160010185558215612269579182015b8281111561226857825182559160200191906001019061224d565b5b509050612276919061227a565b5090565b5b8082111561229357600081600090555060010161227b565b5090565b60006122aa6122a5846133f8565b6133c7565b9050828152602081018484840111156122c257600080fd5b6122cd848285613609565b509392505050565b6000813590506122e4816137c4565b92915050565b6000813590506122f9816137db565b92915050565b60008135905061230e816137f2565b92915050565b600081519050612323816137f2565b92915050565b600082601f83011261233a57600080fd5b813561234a848260208601612297565b91505092915050565b60008135905061236281613809565b92915050565b60006020828403121561237a57600080fd5b6000612388848285016122d5565b91505092915050565b600080604083850312156123a457600080fd5b60006123b2858286016122d5565b92505060206123c3858286016122d5565b9150509250929050565b6000806000606084860312156123e257600080fd5b60006123f0868287016122d5565b9350506020612401868287016122d5565b925050604061241286828701612353565b9150509250925092565b6000806000806080858703121561243257600080fd5b6000612440878288016122d5565b9450506020612451878288016122d5565b935050604061246287828801612353565b925050606085013567ffffffffffffffff81111561247f57600080fd5b61248b87828801612329565b91505092959194509250565b600080604083850312156124aa57600080fd5b60006124b8858286016122d5565b92505060206124c9858286016122ea565b9150509250929050565b600080604083850312156124e657600080fd5b60006124f4858286016122d5565b925050602061250585828601612353565b9150509250929050565b60006020828403121561252157600080fd5b600061252f848285016122ff565b91505092915050565b60006020828403121561254a57600080fd5b600061255884828501612314565b91505092915050565b60006020828403121561257357600080fd5b600061258184828501612353565b91505092915050565b61259381613595565b82525050565b6125a2816135a7565b82525050565b60006125b38261343d565b6125bd8185613453565b93506125cd818560208601613618565b6125d6816137b3565b840191505092915050565b60006125ec82613448565b6125f68185613464565b9350612606818560208601613618565b61260f816137b3565b840191505092915050565b600061262582613448565b61262f8185613475565b935061263f818560208601613618565b80840191505092915050565b600081546126588161364b565b6126628186613475565b9450600182166000811461267d576001811461268e576126c1565b60ff198316865281860193506126c1565b61269785613428565b60005b838110156126b95781548189015260018201915060208101905061269a565b838801955050505b50505092915050565b60006126d7603283613464565b91507f4552433732313a207472616e7366657220746f206e6f6e20455243373231526560008301527f63656976657220696d706c656d656e74657200000000000000000000000000006020830152604082019050919050565b600061273d601c83613464565b91507f4552433732313a20746f6b656e20616c7265616479206d696e746564000000006000830152602082019050919050565b600061277d600a83613475565b91507f6973616e6577776f7264000000000000000000000000000000000000000000006000830152600a82019050919050565b60006127bd600f83613475565b91507f7468697264576f72646275746e657700000000000000000000000000000000006000830152600f82019050919050565b60006127fd602483613464565b91507f4552433732313a207472616e7366657220746f20746865207a65726f2061646460008301527f72657373000000000000000000000000000000000000000000000000000000006020830152604082019050919050565b6000612863601983613464565b91507f4552433732313a20617070726f766520746f2063616c6c6572000000000000006000830152602082019050919050565b60006128a3606383613475565b91507f222c20226465736372697074696f6e223a20224120686967686c79206163636c60008301527f61696d656420636f6c6c656374696f6e206f6620737175617265732e222c202260208301527f696d616765223a2022646174613a696d6167652f7376672b786d6c3b6261736560408301527f36342c00000000000000000000000000000000000000000000000000000000006060830152606382019050919050565b6000612955602c83613464565b91507f4552433732313a206f70657261746f7220717565727920666f72206e6f6e657860008301527f697374656e7420746f6b656e00000000000000000000000000000000000000006020830152604082019050919050565b60006129bb600d83613475565b91507f3c2f746578743e3c2f7376673e000000000000000000000000000000000000006000830152600d82019050919050565b60006129fb603883613464565b91507f4552433732313a20617070726f76652063616c6c6572206973206e6f74206f7760008301527f6e6572206e6f7220617070726f76656420666f7220616c6c00000000000000006020830152604082019050919050565b6000612a61602a83613464565b91507f4552433732313a2062616c616e636520717565727920666f7220746865207a6560008301527f726f2061646472657373000000000000000000000000000000000000000000006020830152604082019050919050565b6000612ac7602983613464565b91507f4552433732313a206f776e657220717565727920666f72206e6f6e657869737460008301527f656e7420746f6b656e00000000000000000000000000000000000000000000006020830152604082019050919050565b6000612b2d602e83613464565b91507f45524337323155524953746f726167653a2055524920736574206f66206e6f6e60008301527f6578697374656e7420746f6b656e0000000000000000000000000000000000006020830152604082019050919050565b6000612b93600283613475565b91507f227d0000000000000000000000000000000000000000000000000000000000006000830152600282019050919050565b6000612bd3602083613464565b91507f4552433732313a206d696e7420746f20746865207a65726f20616464726573736000830152602082019050919050565b6000612c13603183613464565b91507f45524337323155524953746f726167653a2055524920717565727920666f722060008301527f6e6f6e6578697374656e7420746f6b656e0000000000000000000000000000006020830152604082019050919050565b6000612c79602c83613464565b91507f4552433732313a20617070726f76656420717565727920666f72206e6f6e657860008301527f697374656e7420746f6b656e00000000000000000000000000000000000000006020830152604082019050919050565b6000612cdf602983613464565b91507f4552433732313a207472616e73666572206f6620746f6b656e2074686174206960008301527f73206e6f74206f776e00000000000000000000000000000000000000000000006020830152604082019050919050565b6000612d45602f83613464565b91507f4552433732314d657461646174613a2055524920717565727920666f72206e6f60008301527f6e6578697374656e7420746f6b656e00000000000000000000000000000000006020830152604082019050919050565b6000612dab600a83613475565b91507f7b226e616d65223a2022000000000000000000000000000000000000000000006000830152600a82019050919050565b6000612deb602183613464565b91507f4552433732313a20617070726f76616c20746f2063757272656e74206f776e6560008301527f72000000000000000000000000000000000000000000000000000000000000006020830152604082019050919050565b6000612e51601d83613475565b91507f646174613a6170706c69636174696f6e2f6a736f6e3b6261736536342c0000006000830152601d82019050919050565b6000612e91603183613464565b91507f4552433732313a207472616e736665722063616c6c6572206973206e6f74206f60008301527f776e6572206e6f7220617070726f7665640000000000000000000000000000006020830152604082019050919050565b6000612ef7601483613475565b91507f776f686f6f6272616e646e657772616e646f6d730000000000000000000000006000830152601482019050919050565b612f33816135ff565b82525050565b6000612f45828461261a565b915081905092915050565b6000612f5c828561261a565b9150612f68828461261a565b91508190509392505050565b6000612f80828661261a565b9150612f8c828561261a565b9150612f98828461261a565b9150819050949350505050565b6000612fb1828561264b565b9150612fbd828461261a565b9150612fc8826129ae565b91508190509392505050565b6000612fdf82612770565b9150612feb828461261a565b915081905092915050565b6000613001826127b0565b915061300d828461261a565b915081905092915050565b600061302382612d9e565b915061302f828561261a565b915061303a82612896565b9150613046828461261a565b915061305182612b86565b91508190509392505050565b600061306882612e44565b9150613074828461261a565b915081905092915050565b600061308a82612eea565b9150613096828461261a565b915081905092915050565b60006020820190506130b6600083018461258a565b92915050565b60006080820190506130d1600083018761258a565b6130de602083018661258a565b6130eb6040830185612f2a565b81810360608301526130fd81846125a8565b905095945050505050565b600060408201905061311d600083018561258a565b61312a6020830184612f2a565b9392505050565b60006020820190506131466000830184612599565b92915050565b6000602082019050818103600083015261316681846125e1565b905092915050565b6000606082019050818103600083015261318881866125e1565b90506131976020830185612f2a565b6131a4604083018461258a565b949350505050565b600060208201905081810360008301526131c5816126ca565b9050919050565b600060208201905081810360008301526131e581612730565b9050919050565b60006020820190508181036000830152613205816127f0565b9050919050565b6000602082019050818103600083015261322581612856565b9050919050565b6000602082019050818103600083015261324581612948565b9050919050565b60006020820190508181036000830152613265816129ee565b9050919050565b6000602082019050818103600083015261328581612a54565b9050919050565b600060208201905081810360008301526132a581612aba565b9050919050565b600060208201905081810360008301526132c581612b20565b9050919050565b600060208201905081810360008301526132e581612bc6565b9050919050565b6000602082019050818103600083015261330581612c06565b9050919050565b6000602082019050818103600083015261332581612c6c565b9050919050565b6000602082019050818103600083015261334581612cd2565b9050919050565b6000602082019050818103600083015261336581612d38565b9050919050565b6000602082019050818103600083015261338581612dde565b9050919050565b600060208201905081810360008301526133a581612e84565b9050919050565b60006020820190506133c16000830184612f2a565b92915050565b6000604051905081810181811067ffffffffffffffff821117156133ee576133ed613784565b5b8060405250919050565b600067ffffffffffffffff82111561341357613412613784565b5b601f19601f8301169050602081019050919050565b60008190508160005260206000209050919050565b600081519050919050565b600081519050919050565b600082825260208201905092915050565b600082825260208201905092915050565b600081905092915050565b600061348b826135ff565b9150613496836135ff565b9250827fffffffffffffffffffffffffffffffffffffffffffffffffffffffffffffffff038211156134cb576134ca6136f7565b5b828201905092915050565b60006134e1826135ff565b91506134ec836135ff565b9250826134fc576134fb613726565b5b828204905092915050565b6000613512826135ff565b915061351d836135ff565b9250817fffffffffffffffffffffffffffffffffffffffffffffffffffffffffffffffff0483118215151615613556576135556136f7565b5b828202905092915050565b600061356c826135ff565b9150613577836135ff565b92508282101561358a576135896136f7565b5b828203905092915050565b60006135a0826135df565b9050919050565b60008115159050919050565b60007fffffffff0000000000000000000000000000000000000000000000000000000082169050919050565b600073ffffffffffffffffffffffffffffffffffffffff82169050919050565b6000819050919050565b82818337600083830152505050565b60005b8381101561363657808201518184015260208101905061361b565b83811115613645576000848401525b50505050565b6000600282049050600182168061366357607f821691505b6020821081141561367757613676613755565b5b50919050565b6000613688826135ff565b91507fffffffffffffffffffffffffffffffffffffffffffffffffffffffffffffffff8214156136bb576136ba6136f7565b5b600182019050919050565b60006136d1826135ff565b91506136dc836135ff565b9250826136ec576136eb613726565b5b828206905092915050565b7f4e487b7100000000000000000000000000000000000000000000000000000000600052601160045260246000fd5b7f4e487b7100000000000000000000000000000000000000000000000000000000600052601260045260246000fd5b7f4e487b7100000000000000000000000000000000000000000000000000000000600052602260045260246000fd5b7f4e487b7100000000000000000000000000000000000000000000000000000000600052604160045260246000fd5b6000601f19601f8301169050919050565b6137cd81613595565b81146137d857600080fd5b50565b6137e4816135a7565b81146137ef57600080fd5b50565b6137fb816135b3565b811461380657600080fd5b50565b613812816135ff565b811461381d57600080fd5b5056fe416e204e465420772f20494420257320686173206265656e206d696e74656420746f2025734142434445464748494a4b4c4d4e4f505152535455565758595a6162636465666768696a6b6c6d6e6f707172737475767778797a303132333435363738392b2fa26469706673582212208ad0e8642b65f644f2f76377b0fc8c49c328f2b8b57832efcd9560a54c47ecc564736f6c634300080000333c73766720786d6c6e733d27687474703a2f2f7777772e77332e6f72672f323030302f73766727207072657365727665417370656374526174696f3d27784d696e594d696e206d656574272076696577426f783d273020302033353020333530273e3c7374796c653e2e62617365207b2066696c6c3a2077686974653b20666f6e742d66616d696c793a2073657269663b20666f6e742d73697a653a20323470783b207d3c2f7374796c653e3c726563742077696474683d273130302527206865696768743d2731303025272066696c6c3d27626c61636b27202f3e3c7465787420783d273530252720793d273530252720636c6173733d27626173652720646f6d696e616e742d626173656c696e653d276d6964646c652720746578742d616e63686f723d276d6964646c65273e",
  "linkReferences": {},
  "deployedLinkReferences": {}
}